:100000000C945D000C9485000C9485000C94850084
:100010000C9485000C9485000C9485000C9485004C
:100020000C9485000C9485000C9485000C9485003C
:100030000C9485000C9485000C9485000C9485002C
:100040000C94F4030C9485000C9466030C94400308
:100050000C9485000C9485000C9485000C9485000C
:100060000C9485000C9485000000000024002700FB
:100070002A0000000000250028002B0004040404CE
:100080000404040402020202020203030303030342
:10009000010204081020408001020408102001021F
:1000A00004081020000000080002010000030407FB
:1000B0000000000000000000F30A11241FBECFEF73
:1000C000D8E0DEBFCDBF22E0AAE9B1E001C01D92B9
:1000D000AD3FB207E1F711E0A0E0B1E0EAE1F1E203
:1000E00002C005900D92AA39B107D9F710E0CDE50D
:1000F000D0E004C02197FE010E943F0ECC35D1070D
:10010000C9F70E9462080C948B100C9400000895AB
:1001100080E090E00895FC01538D448D252F30E060
:10012000842F90E0821B930B541710F0CF96089504
:1001300001970895FC01918D828D981761F0828D51
:10014000DF01A80FB11D5D968C91928D9F5F9F730B
:10015000928F90E008958FEF9FEF0895FC01918DAD
:10016000828D981731F0828DE80FF11D858D90E01A
:1001700008958FEF9FEF0895FC01918D228D892FB7
:1001800090E0805C9F4F821B91098F73992708959F
:100190008FEA91E00E94BC0021E0892B09F420E065
:1001A000822F0895FC01848DDF01A80FB11DA35A91
:1001B000BF4F2C91848D90E001968F739927848F87
:1001C000A689B7892C93A089B1898C9180648C937E
:1001D000938D848D981306C00288F389E02D808169
:1001E0008F7D80830895EF92FF920F931F93CF939B
:1001F000DF93EC0181E0888F9B8D8C8D981305C077
:10020000E889F989808185FD24C0F62E0B8D10E0E8
:100210000F5F1F4F0F731127E02E8C8DE8120CC05B
:100220000FB607FCFACFE889F989808185FFF5CF01
:10023000CE010E94D200F1CF8B8DFE01E80FF11D9F
:10024000E35AFF4FF0820B8FEA89FB89808180623D
:1002500007C0EE89FF896083E889F989808180641D
:10026000808381E090E0DF91CF911F910F91FF900B
:10027000EF900895CF93DF93EC01888D8823C9F028
:10028000EA89FB89808185FD05C0A889B9898C919F
:1002900086FD0FC00FB607FCF5CF808185FFF2CF3A
:1002A000A889B9898C9185FFEDCFCE010E94D2003B
:1002B000E7CFDF91CF91089580E090E0892B29F07E
:1002C0000E94C80081110C940000089590E0FC0188
:1002D000EC55FF4F3491FC01E057FF4F2491FC0196
:1002E000E458FF4FE491EE2309F43BC0332339F186
:1002F000333091F038F43130A9F0323001F584B563
:100300008F7D12C0373091F03830A1F03430B9F41D
:10031000809180008F7D03C0809180008F778093D3
:1003200080000DC084B58F7784BD09C08091B00076
:100330008F7703C08091B0008F7D8093B000F0E094
:10034000EE0FFF1FEE58FF4FA591B4918FB7F894B1
:10035000EC91611103C020952E2301C02E2B2C930C
:100360008FBF0895CF93DF9390E0FC01E057FF4FDC
:100370002491FC01E458FF4F8491882361F190E0BF
:10038000880F991FFC01E859FF4FC591D491FC01DA
:10039000EE58FF4FA591B491611109C09FB7F89431
:1003A0008881209582238883EC912E230BC06230B4
:1003B00061F49FB7F8943881822F809583238883D6
:1003C000EC912E2B2C939FBF06C08FB7F894E88139
:1003D0002E2B28838FBFDF91CF9108951F93CF934A
:1003E000DF93182FEB0161E00E94B201209711F416
:1003F00060E004C0CF3FD10539F461E0812FDF9187
:10040000CF911F910C946601E12FF0E0EC55FF4F66
:10041000E491E330F9F048F4E130B9F0E230A1F5CD
:1004200084B5806284BDC8BD34C0E730E9F0E830EF
:1004300019F1E43049F5809180008062809380005A
:10044000D0938B00C0938A0024C084B5806884BD9B
:10045000C7BD1FC080918000806880938000D093CA
:100460008900C093880015C08091B0008068809397
:10047000B000C093B3000DC08091B0008062809343
:10048000B000C093B40005C0C038D1050CF0B5CFA2
:10049000AFCFDF91CF911F9108958E3008F08E502D
:1004A0008770806480937C0080917A008064809360
:1004B0007A0080917A0086FDFCCF809178002091AF
:1004C000790090E0922B08953FB7F89480919F01B6
:1004D0009091A001A091A101B091A20126B5A89B85
:1004E00005C02F3F19F00196A11DB11D3FBFBA2FC6
:1004F000A92F982F8827820F911DA11DB11DBC0126
:10050000CD0142E0660F771F881F991F4A95D1F7EA
:1005100008950895FC01DB0182819C91981751F0A8
:1005200091E094839C91891710F08FEF01C081E0D6
:10053000838301C014828C9182830895FC01DB01C6
:100540002D913C91828193812817390751F041E028
:1005500045838217930710F08FEF01C081E08483F9
:1005600001C01582DB018D919C9193838283089554
:100570000F931F93CF93DF938C01EB010E948A02AC
:10058000D80115968D919C911697009761F0DC012A
:10059000ED91FC910190F081E02DBE01DF91CF91B2
:1005A0001F910F910994DF91CF911F910F910895A1
:1005B0000F931F93CF93DF93FC01DB010D911D91EE
:1005C0002D913C9182819381A481B58108171907EF
:1005D0002A073B0761F041E0478380179107A20794
:1005E000B30710F08FEF01C081E0868301C017824E
:1005F000EB0188819981AA81BB8182839383A48343
:10060000B583DF91CF911F910F910895FC01DB011C
:1006100082819C91981769F091E094832C9130E04D
:1006200090E08217930714F08FEF01C081E083837D
:1006300001C014828C91828308950F931F93CF93EE
:10064000DF938C01EB010E940603D80115968D9172
:100650009C911697009761F0DC01ED91FC9101905F
:10066000F081E02DBE01DF91CF911F910F91099490
:10067000DF91CF911F910F91089508950C94DA0E98
:100680001F920F920FB60F9211242F933F934F9307
:100690005F936F937F938F939F93AF93BF93EF93EA
:1006A000FF938FEA91E00E94D200FF91EF91BF91FA
:1006B000AF919F918F917F916F915F914F913F91FA
:1006C0002F910F900FBE0F901F9018951F920F92B1
:1006D0000FB60F9211242F938F939F93EF93FF9355
:1006E000E091BF01F091C0018081E091C501F091DE
:1006F000C60182FD12C090818091C8018F5F8F7307
:100700002091C901821751F0E091C801F0E0E15554
:10071000FE4F958F8093C80101C08081FF91EF91BA
:100720009F918F912F910F900FBE0F901F90189552
:100730002FB7F89460919B0170919C0180919D016D
:1007400090919E012FBF0895CF92DF92EF92FF927A
:100750000F931F93CF93DF9300D000D0CDB7DEB7B8
:100760008C010E949803F801C588D688E788F08C30
:10077000DC01CB018C199D09AE09BF09C480D5806D
:10078000E680F7809801245F3F4F8C159D05AE05EC
:10079000BF05B0F081E08983BE016F5F7F4FC90163
:1007A0000E941D030E94980369837A838B839C8334
:1007B000BE016F5F7F4FC80143960E94D80207C0F9
:1007C0001982BE016F5F7F4FC9010E941D030F9008
:1007D0000F900F900F90DF91CF911F910F91FF908D
:1007E000EF90DF90CF9008951F920F920FB60F9267
:1007F00011242F933F938F939F93AF93BF93809137
:100800009B0190919C01A0919D01B0919E0130911E
:100810009A0123E0230F2D3720F40196A11DB11D6D
:1008200005C026E8230F0296A11DB11D20939A0151
:1008300080939B0190939C01A0939D01B0939E0196
:1008400080919F019091A001A091A101B091A2017E
:100850000196A11DB11D80939F019093A001A093CB
:10086000A101B093A201BF91AF919F918F913F9150
:100870002F910F900FBE0F901F901895FF920F931E
:100880001F93CF93DF9300D0CDB7DEB78C011982D1
:10089000BE016F5F7F4F81960E940603FF24F39491
:1008A000F982BE016F5F7F4FC80102960E94060366
:1008B0001A821982BE016F5F7F4FC80109960E949C
:1008C0009E021A821982BE016F5F7F4FC801419656
:1008D0000E949E021A821982BE016F5F7F4FC8017B
:1008E00049960E949E021982BE016F5F7F4FC80128
:1008F00088960E94B8021982BE016F5F7F4FC801BF
:100900008F960E94B8021982BE016F5F7F4FC801A7
:10091000C6960E94B802F982BE016F5F7F4FC80180
:10092000CD960E941D030F900F90DF91CF911F91E4
:100930000F91FF9008956F927F928F929F92AF9246
:10094000BF92CF92DF92EF92FF920F931F93CF93BC
:10095000DF93CDB7DEB7EC970FB6F894DEBF0FBECE
:10096000CDBFDC0194962C91949794961C92949709
:10097000213009F07CC28C01FC01858115828F3FFA
:1009800009F045C0CD010E943E04E091BF01F09105
:10099000C00182E08083E091BB01F091BC01108234
:1009A000E091BD01F091BE018FEC80831092C701F0
:1009B000E091C301F091C40186E08083E091C10120
:1009C000F091C201808180618083E091C101F0914A
:1009D000C201808188608083E091C101F091C201F1
:1009E000808180688083E091C101F091C2018081A3
:1009F0008F7D808389E090E0A0E0B0E08093B30138
:100A00009093B401A093B501B093B60108C02983B7
:100A1000BE016F5F7F4FCD0102960E9406038FEAF1
:100A200091E00E94BC00892B09F49BC118AE1FAA5B
:100A30001AAE19AE1CAE1BAE60E070E0CE01C796D8
:100A40000E943B082FA938AD81110DC02115310539
:100A500019F0C9010E94DA0E18AE1FAA1CAE1BAE17
:100A60001AAE19AE26C01CAE1BAE61E671E0C9011C
:100A70000E945B101EC08A309105F9F089831A82AA
:100A8000EBACFCACFFEFEF1AFF0AB701CE01C79643
:100A90000E943B08882369F02FA938AD8BAD9CAD2F
:100AA000BE016F5F7F4F820F931F0E945B10FCAEF1
:100AB000EBAE0E94990797FFDECF8BAD9CAD892BE3
:100AC00009F44BC16FA978AD8AE091E09A838983DC
:100AD0001C821B821E821D8218861F827E0189E075
:100AE000E80EF11C84E1D7011D928A95E9F743E1F4
:100AF00050E0C7010E946210FE01B7968AE0DF0154
:100B00001D928A95E9F76E01B1E3CB0ED11C86E008
:100B1000D6011D928A95E9F7C7014F01AE014E5EDD
:100B20005F4F7C01DC012C910196322F3F7D49F013
:100B30007C01219384179507A1F788EC90E09C83B2
:100B40008B838B819C81892B09F05BC03E01BDE1C9
:100B50006B0E711C5301D4018D914D01882349F016
:100B6000082E000C990B0E944110F30181933F0164
:100B7000F2CFF301108266E771E0C5010E947110A7
:100B8000892B19F01E821D823CC06AE771E0C50105
:100B90000E945210892B19F481E090E027C06EE783
:100BA00071E0C5010E945210892B19F482E090E097
:100BB0001DC062E871E0C5010E945210892B19F432
:100BC00083E090E013C066E871E0C5010E94521016
:100BD000892B19F484E090E009C069E871E0C5014F
:100BE0000E947110892B29F085E090E09E838D830F
:100BF00008C08FEF9FEF9E838D838CE291E09C83F2
:100C00008B838B819C81892B91F4F7013196D601DE
:100C10009E012A5C3F4F8191982F9F7D41F08D93DB
:100C2000A217B307C1F789EC90E09C838B838B817B
:100C30009C81892B09F009C1C6010E94EF0BF82E97
:100C40008F8398872D813E8122303105C9F1B4F41C
:100C50002115310531F12130310509F075C01D8EA6
:100C6000BE01635E7F4FC801CD960E941D03FD8EBD
:100C7000BE01635E7F4FC8018F9663C0243031058B
:100C800009F441C034F12530310509F05DC081E03F
:100C90008D8FBE01635E7F4FC801CD960E941D03FC
:100CA00058C01D8EBE01635E7F4FC801CD960E9465
:100CB0001D03FD8EBE01635E7F4FC801889641C053
:100CC0001D8EBE01635E7F4FC801CD960E941D033D
:100CD00032C01D8EBE01635E7F4FC801CD960E945B
:100CE0001D031D8EBE01635E7F4FC80188960E9462
:100CF000B8021D8EBE01635E7F4FC8018F960E94B1
:100D0000B8021D8E19C01D8EBE01635E7F4FC801E3
:100D1000CD960E941D03FD8EBE01635E7F4FC8010C
:100D200088960E94B802FD8EBE01635E7F4FC801A7
:100D30008F960E94B802FD8EBE01635E7F4FC80190
:100D4000C6960E94B80205C08FA998AD0E94DA0E1F
:100D50008EC087E991E00E948B078FA998AD0E9411
:100D6000DA0ED801DF968C91DF97882309F47FC0D3
:100D70001B966D917C911C9780E090E00E944A0C3C
:100D800023EC35EF48E254E40E949E0D20E030E071
:100D90004FE753E40E94870C0E94100E6F3F7105CD
:100DA00019F010F06FEF70E06983BE016F5F7F4F45
:100DB000C80188960E94B802F8016389748980E0AE
:100DC00090E00E944A0C23EC35EF48E254E40E9484
:100DD0009E0D20E030E04FE753E40E94870C0E9414
:100DE000100E6F3F710519F010F06FEF70E069831E
:100DF000BE016F5F7F4FC8018F960E94B802D80175
:100E00005B966D917C915C9780E090E00E944A0C2B
:100E100023EC35EF48E254E40E949E0D20E030E0E0
:100E20004FE753E40E94870C0E94100E6F3F71053C
:100E300019F010F06FEF70E06983BE016F5F7F4FB4
:100E4000C801C6960E94B80212C08FE891E00E94C5
:100E500079074AE0BE01635E7F4F8B819C810E94CF
:100E60000D0C0E948B07F12C2FEF3FEFEDCEEC968F
:100E70000FB6F894DEBF0FBECDBFDF91CF911F91AB
:100E80000F91FF90EF90DF90CF90BF90AF909F9029
:100E90008F907F906F900895CF92DF92EF92FF92A4
:100EA0000F931F93CF93DF936C017A018B01C0E006
:100EB000D0E0CE15DF0589F0D8016D918D01D60106
:100EC000ED91FC910190F081E02DC6010995892BEF
:100ED00011F47E0102C02196ECCFC701DF91CF91C2
:100EE0001F910F91FF90EF90DF90CF9008950E9497
:100EF0003C10009769F0FC0101900020E9F7319760
:100F0000AF01481B590BBC018FEA91E00C944C07D0
:100F100080E090E00895CF93DF930E947907EC0181
:100F20008FE591E00E9479078C0F9D1FDF91CF9193
:100F300008950F931F930E9498036093B7017093D5
:100F4000B8018093B9019093BA01E091AF01F0919B
:100F5000B0010284F385E02D8FEA91E0099597FFB7
:100F60001FC00E9498030091B7011091B801209111
:100F7000B9013091BA01DC01CB01801B910BA20BAE
:100F8000B30B0091B3011091B4012091B5013091E0
:100F9000B60180179107A207B307B8F28FEF9FEF52
:100FA0001F910F9108958F929F92AF92BF92CF920F
:100FB000DF92EF92FF926B017C010E9498034B013C
:100FC0005C01C60ED71EE81EF91E0E949803681524
:100FD00079058A059B0528F0C616D706E806F906A6
:100FE000A0F7FF90EF90DF90CF90BF90AF909F90D1
:100FF0008F9008958F929F92AF92BF920F931F93FD
:10100000CF93DF93CDB7DEB7A1970FB6F894DEBFCD
:101010000FBECDBF19A2423008F44AE08E010F5D29
:101020001F4F842E912CA12CB12CA50194010E945C
:10103000450DE62FB901CA0101501109EA3014F437
:10104000E05D01C0E95CD801EC93232B242B252B18
:1010500061F7C8010E947907A1960FB6F894DEBF28
:101060000FBECDBFDF91CF911F910F91BF90AF9079
:101070009F908F9008950F931F93CF93DF93EC0170
:1010800088819981009729F02A813B8126173707AB
:1010900088F48B016F5F7F4F0E94720F009761F0A1
:1010A000998388831B830A832C813D81232B11F430
:1010B000FC01108281E001C080E0DF91CF911F919F
:1010C0000F910895CF93DF93CDB7DEB72A970FB670
:1010D000F894DEBF0FBECDBF789484B5826084BD26
:1010E00084B5816084BD85B5826085BD85B581602C
:1010F00085BD80916E00816080936E0010928100AA
:101100008091810082608093810080918100816064
:101110008093810080918000816080938000809125
:10112000B10084608093B1008091B00081608093B1
:10113000B00080917A00846080937A0080917A0078
:10114000826080937A0080917A00816080937A0037
:1011500080917A00806880937A001092C10010928A
:101160008E0210928F0210929002109291021092B1
:101170004E0210924F02109250021092510268EBF0
:101180007BE080E090E00E94D3070E9464024B0164
:101190005C0140EDC42E47E0D42EE12CF12C0E94DE
:1011A0006402DC01CB0188199909AA09BB09883EB0
:1011B0009340A105B10558F021E0C21AD108E10819
:1011C000F10838EE830E33E0931EA11CB11CC1144C
:1011D000D104E104F10419F7E091BF01F091C001DD
:1011E00082E08083E091BB01F091BC011082E0912C
:1011F000BD01F091BE0180E180831092C701E091B2
:10120000C301F091C40186E08083E091C101F091B7
:10121000C201808180618083E091C101F091C201AF
:10122000808188608083E091C101F091C20180815A
:1012300080688083E091C101F091C20180818F7D3F
:1012400080830E94980360934E0270934F028093B4
:1012500050029093510280E591E00E9479076AE084
:1012600070E080E090E00E94D30781E0809362020A
:101270008091F3029091F4029C012F5F3F4F3093D5
:10128000F4022093F302880F991FFC01EB50FD4FED
:1012900082E992E09183808360E08EE00E94B20157
:1012A00060E08FE00E94B20160E080E10E94B20144
:1012B00061E08DE00E94B20161E083E00E94B20132
:1012C00061E086E00E94B20161E089E00E94B20123
:1012D0008AE090E0A0E0B0E089839A83AB83BC838E
:1012E000BE016F5F7F4F84E992E00E94D8021982AD
:1012F000BE016F5F7F4F8FEA92E00E94060334EFDA
:10130000C32EDD24D394E12CF12C18E00E94980325
:10131000672B682B692B41F40E949803623071059A
:101320008105910508F4DBC00E9498036093AB012E
:101330007093AC018093AD019093AE018090A701B2
:101340009090A801A090A901B090AA016815790514
:101350008A059B0540F46093A7017093A8018093D0
:10136000A9019093AA018090A7019090A801A09054
:10137000A901B090AA019B01AC01281939094A09B9
:101380005B0949015A013AEF83169104A104B104A3
:1013900008F4A5C06093A7017093A8018093A901E8
:1013A0009093AA01C0925A02D0925B02E0925C0232
:1013B000F0925D0210925E0210925F021092600243
:1013C000109261028091520290915302A0915402B6
:1013D000B09155028093560290935702A093580201
:1013E000B09359020E949803609352027093530283
:1013F00080935402909355020E94980360934E028A
:1014000070934F0280935002909351020E94980370
:101410004B015C0182E691E00E9479074AE061E0BD
:1014200070E080E090E00E94FA0789E691E00E9477
:1014300079074AE0C501B4010E94FA078BE691E002
:101440000E9479078091520290915302A091540218
:10145000B0915502A5019401281B390B4A0B5B0B77
:10146000CA01B9014AE00E94FA078BE691E00E94A6
:1014700079078091520290915302A0915402B09149
:1014800055028090560290905702A0905802B0905A
:101490005902BC01CD01681979098A099B094AE002
:1014A0000E94FA078DE691E00E9479070E94980356
:1014B0004AE00E94FA078FE691E00E948B0765E000
:1014C00070E080E090E00E94D3070E949803609350
:1014D00052027093530280935402909355028EE00F
:1014E0000E944D029A878987BE01675F7F4F86EB16
:1014F00092E00E949E028FE00E944D029A878987A7
:10150000BE01675F7F4F8EEB92E00E949E0280E1FA
:101510000E944D029A878987BE01675F7F4F86ECE4
:1015200092E00E949E028091A0028987BE01675FBF
:101530007F4F8EEC92E00E940603E1EFF2E0DE01C5
:101540001196812F01900D928A95E1F789819A81F8
:101550002B813C8182179307C8F49C012F5F3F4F7A
:101560003A832983FC013296EE0FFF1F41E050E0E1
:101570004C0F5D1FE40FF51F80819181DC01ED911F
:10158000FC910190F081E02D0995E0CF8091A301BD
:101590009091A401A091A501B091A6010196A11D71
:1015A000B11D8093A3019093A401A093A501B093D2
:1015B000A6016091D70270E083E00E94EE01609185
:1015C000DE0270E086E00E94EE016091E50270E0CC
:1015D00089E00E94EE016091EC028DE00E946601BC
:1015E0000E945C0193CECF92DF92EF92FF920F9315
:1015F0001F93CF93DF9300D000D0CDB7DEB7EFEAD3
:10160000F1E01382128288EE93E0A0E0B0E08483E0
:101610009583A683B78382E191E09183808385ECF3
:1016200090E09587848784EC90E09787868780ECAC
:1016300090E0918B808B81EC90E0938B828B82EC9D
:1016400090E0958B848B86EC90E0978B868B118E47
:10165000128E138E148EECE4F2E01682178210863E
:101660001186128613861486158616861786108AAA
:10167000118A128A138A148A158A81EFE82E82E071
:10168000F82EF701138212821582148217821682B5
:101690000DEA12E08EE491E0F801918380831482D8
:1016A000158216822CE331E0338322831086178261
:1016B000148613861586168686E391E092878187C5
:1016C000108A1786148A138A158A168A928B818B40
:1016D000108E178A148E138E158E168E928F818F10
:1016E00010A2178E13A214A215A232A321A317A22F
:1016F00016A212A613A614A682E491E091A780A7D1
:1017000011AA12AA13AA90AB87A710AE11AE12AEFF
:1017100097AB86AB1092EC021092ED021092EE02A3
:1017200098E4C92E91E0D92ED092EB02C092EA0241
:10173000C8010E943E04F701828193819C012F5FC2
:101740003F4F33832283880F991FFC01EB50FD4FDD
:1017500011830083E2E9F2E080E391E091838083EA
:1017600014821582168217821086118684E291E017
:10177000938382831386128616861786108AD586EF
:10178000C486158A168A178A108E118E128E8AE2E6
:1017900091E0948B838B81E090E0A0E0B0E08983BE
:1017A0009A83AB83BC83BE016F5F7F4F84E992E075
:1017B0000E94D8021982BE016F5F7F4F8EE992E0CE
:1017C0000E941D030F900F900F900F90DF91CF910B
:1017D0001F910F91FF90EF90DF90CF900895FC0143
:1017E00088279927E89421912032E9F3293010F0D5
:1017F0002E30C8F32B3241F02D3239F4689404C0F6
:101800000E94180C820F911D219120532A30C0F3A1
:101810001EF4909581959F4F0895BB274A3031F46F
:10182000992322F4BDE2909581959F4F0C94210C51
:101830007AE0979F902D879F802D910D1124089518
:10184000BB27FB015527AA27880F991FAA1FA4179A
:1018500010F0A41B83955051B9F7A05DAA3308F08E
:10186000A95DA193009779F7B111B1931192CB01C2
:101870000C943A0CDC01FC01672F71917723E1F79E
:10188000329704C07C916D9370836291AE17BF074D
:10189000C8F30895E89409C097FB3EF490958095AD
:1018A000709561957F4F8F4F9F4F9923A9F0F92F26
:1018B00096E9BB279395F695879577956795B795A4
:1018C000F111F8CFFAF4BB0F11F460FF1BC06F5F8A
:1018D0007F4F8F4F9F4F16C0882311F096E911C09C
:1018E000772321F09EE8872F762F05C0662371F0BD
:1018F00096E8862F70E060E02AF09A95660F771FD1
:10190000881FDAF7880F9695879597F908950E94B2
:101910009A0C0C940B0D0E94FD0C38F00E94040DE3
:1019200020F0952311F00C94F40C0C94FA0C112473
:101930000C943F0D0E941C0D70F3959FC1F3950F01
:1019400050E0551F629FF001729FBB27F00DB11D43
:10195000639FAA27F00DB11DAA1F649F6627B00DD3
:10196000A11D661F829F2227B00DA11D621F739FBC
:10197000B00DA11D621F839FA00D611D221F749FCA
:101980003327A00D611D231F849F600D211D822F11
:10199000762F6A2F11249F5750409AF0F1F0882338
:1019A0004AF0EE0FFF1FBB1F661F771F881F915065
:1019B0005040A9F79E3F510580F00C94F40C0C9414
:1019C0003F0D5F3FE4F3983ED4F386957795679596
:1019D000B795F795E7959F5FC1F7FE2B880F911D8F
:1019E0009695879597F9089597F99F6780E870E035
:1019F00060E008959FEF80EC089500240A94161685
:101A0000170618060906089500240A9412161306EC
:101A1000140605060895092E0394000C11F488237A
:101A200052F0BB0F40F4BF2B11F460FF04C06F5F96
:101A30007F4F8F4F9F4F089557FD9058440F551F6C
:101A400059F05F3F71F04795880F97FB991F61F040
:101A50009F3F79F087950895121613061406551FB7
:101A6000F2CF4695F1DF08C0161617061806991F23
:101A7000F1CF86957105610508940895E894BB2718
:101A800066277727CB0197F90895A1E21A2EAA1BA2
:101A9000BB1BFD010DC0AA1FBB1FEE1FFF1FA2171E
:101AA000B307E407F50720F0A21BB30BE40BF50B1B
:101AB000661F771F881F991F1A9469F760957095A4
:101AC000809590959B01AC01BD01CF0108952F92A7
:101AD0003F924F925F926F927F928F929F92AF92BE
:101AE000BF92CF92DF92EF92FF920F931F93CF930B
:101AF000DF93CDB7DEB7CA1BDB0B0FB6F894DEBFA2
:101B00000FBECDBF09942A88398848885F846E84C7
:101B10007D848C849B84AA84B984C884DF80EE8011
:101B2000FD800C811B81AA81B981CE0FD11D0FB61A
:101B3000F894DEBF0FBECDBFED0108950E94B20D37
:101B40000C940B0D0E94040D58F00E94FD0C40F007
:101B500029F45F3F29F00C94F40C51110C943F0DC3
:101B60000C94FA0C0E941C0D68F39923B1F35523D1
:101B700091F3951B550BBB27AA27621773078407A0
:101B800038F09F5F5F4F220F331F441FAA1FA9F336
:101B900035D00E2E3AF0E0E832D091505040E69524
:101BA000001CCAF72BD0FE2F29D0660F771F881F85
:101BB000BB1F261737074807AB07B0E809F0BB0B78
:101BC000802DBF01FF2793585F4F3AF09E3F51058C
:101BD00078F00C94F40C0C943F0D5F3FE4F3983EC6
:101BE000D4F3869577956795B795F7959F5FC9F775
:101BF000880F911D9695879597F90895E1E0660FF6
:101C0000771F881FBB1F621773078407BA0720F06E
:101C1000621B730B840BBA0BEE1F88F7E0950895D7
:101C20000E94240D88F09F5798F0B92F9927B7513B
:101C3000B0F0E1F0660F771F881F991F1AF0BA9570
:101C4000C9F714C0B13091F00E943E0DB1E0089583
:101C50000C943E0D672F782F8827B85F39F0B93F75
:101C6000CCF3869577956795B395D9F73EF4909523
:101C70008095709561957F4F8F4F9F4F0895EE0F20
:101C8000FF1F0590F491E02D0994CF93DF938230EC
:101C9000910510F482E090E0E091FB02F091FC02EB
:101CA00020E030E0C0E0D0E0309711F14081518178
:101CB00048175907C0F04817590761F4828193818A
:101CC000209719F09B838A832BC09093FC0280930A
:101CD000FB0226C02115310519F04217530718F4ED
:101CE0009A01BE01DF01EF010280F381E02DDCCF1C
:101CF0002115310509F1281B390B2430310590F4E9
:101D000012968D919C9113976115710521F0FB013D
:101D10009383828304C09093FC028093FB02FD01B5
:101D2000329644C0FD01E20FF31F8193919322503C
:101D300031092D933C933AC02091F9023091FA0277
:101D4000232B41F420910201309103013093FA02D8
:101D50002093F902209100013091010121153105F4
:101D600041F42DB73EB74091040150910501241B69
:101D7000350BE091F902F091FA02E217F307A0F4B3
:101D80002E1B3F0B2817390778F0AC014E5F5F4FD1
:101D90002417350748F04E0F5F1F5093FA02409307
:101DA000F9028193919302C0E0E0F0E0CF01DF916E
:101DB000CF9108950F931F93CF93DF93009709F46A
:101DC0008CC0FC013297138212820091FB021091A9
:101DD000FC020115110581F420813181820F931FCE
:101DE0002091F9023091FA022817390779F5F0931A
:101DF000FA02E093F90271C0D80140E050E0AE175A
:101E0000BF0750F412962D913C911397AD01211507
:101E1000310509F1D901F3CF9D01DA013383228322
:101E200060817181860F971F8217930769F4EC0117
:101E300028813981260F371F2E5F3F4F3183208342
:101E40008A819B8193838283452B29F4F093FC0242
:101E5000E093FB0242C01396FC93EE931297ED01C0
:101E6000499159919E01240F351FE217F30771F430
:101E700080819181840F951F029611969C938E9379
:101E80008281938113969C938E931297E0E0F0E009
:101E9000D80112968D919C911397009719F0F80133
:101EA0008C01F6CF8D919C9198012E5F3F4F820F50
:101EB000931F2091F9023091FA022817390769F42B
:101EC000309729F41092FC021092FB0202C0138298
:101ED00012821093FA020093F902DF91CF911F91C1
:101EE0000F910895A0E0B0E0E8E7FFE00C946B0DDF
:101EF000EC01009721F4CB010E94450EB8C0FC0113
:101F0000E60FF71F9C0122503109E217F30708F48E
:101F1000ACC0D9010D911C91119706171707B0F0AD
:101F20000530110508F49FC0C8010497861797076C
:101F300008F499C002501109061B170B0193119365
:101F40006D937C93CF010E94DA0E8DC05B01A01AC5
:101F5000B10A4C01800E911EA091FB02B091FC02CF
:101F600040E050E0E12CF12C109709F44AC0A8158C
:101F7000B905D1F56D907C901197630182E0C80E90
:101F8000D11CCA14DB0480F1A3014A195B096A0160
:101F900082E0C80ED11C1296BC9012971396AC9199
:101FA000B5E0CB16D10440F0B282A38351834083C5
:101FB000D9016D937C930AC00E5F1F4FC301800F40
:101FC000911FF90191838083EB2DFA2FE114F10425
:101FD00031F0D7011396FC93EE93129744C0F0931F
:101FE000FC02E093FB023FC08D919C911197481732
:101FF000590708F4AC017D0112960D90BC91A02DFB
:10200000B3CF8091F9029091FA0288159905E1F415
:1020100046175707C8F4809100019091010100977D
:1020200041F48DB79EB74091040150910501841B86
:10203000950BE817F907C8F4F093FA02E093F90258
:10204000F901718360830FC0CB010E94450E7C01B2
:10205000009759F0A801BE010E944910CE010E94CC
:10206000DA0EC70104C0CE0102C080E090E0CDB717
:10207000DEB7EEE00C94870D81E090E0F8940C94CC
:102080008B109111089581568A5108F48052855819
:102090000895FB01DC0102C001900D9241505040B7
:1020A000D8F70895FB01DC018D9101908019011092
:1020B000D9F3990B0895FB01DC0101900D920020EA
:1020C000E1F70895FB01DC014150504048F00190D8
:1020D0000D920020C9F701C01D9241505040E0F719
:1020E0000895FB0151915523A9F0BF01DC014D91E9
:1020F00045174111E1F759F4CD010190002049F055
:102100004D9140154111C9F3FB014111EFCF81E021
:0A21100090E001970895F894FFCFC6
:10211A000000FD0280000000000089023E0300006A
:10212A000000F3004C078B003A01BC009A00AE0095
:10213A0000000000D80200000000D80200000000E1
:10214A00A403000000009E02000000000603000035
:10215A000000B802000000001D03000000009B04FC
:10216A00564D4450565F317C315F564D4450560DA2
:10217A000A00564D4450455F003A323A007C005FEF
:10218A00564D4450450043483100434832004348C5
:10219A0033004F4646004F4E00494E5055540045B5
:0A21AA0052524F523A20004F4B00F2
:00000001FF
